{
  "_format": "hh-sol-artifact-1",
  "contractName": "Auction",
  "sourceName": "src/contracts/Auction.sol",
  "abi": [
    {
      "inputs": [
        {
          "internalType": "uint256",
          "name": "_royaltyFee",
          "type": "uint256"
        }
      ],
      "stateMutability": "nonpayable",
      "type": "constructor"
    },
    {
      "anonymous": false,
      "inputs": [
        {
          "indexed": true,
          "internalType": "address",
          "name": "owner",
          "type": "address"
        },
        {
          "indexed": true,
          "internalType": "address",
          "name": "approved",
          "type": "address"
        },
        {
          "indexed": true,
          "internalType": "uint256",
          "name": "tokenId",
          "type": "uint256"
        }
      ],
      "name": "Approval",
      "type": "event"
    },
    {
      "anonymous": false,
      "inputs": [
        {
          "indexed": true,
          "internalType": "address",
          "name": "owner",
          "type": "address"
        },
        {
          "indexed": true,
          "internalType": "address",
          "name": "operator",
          "type": "address"
        },
        {
          "indexed": false,
          "internalType": "bool",
          "name": "approved",
          "type": "bool"
        }
      ],
      "name": "ApprovalForAll",
      "type": "event"
    },
    {
      "anonymous": false,
      "inputs": [
        {
          "indexed": true,
          "internalType": "uint256",
          "name": "tokenId",
          "type": "uint256"
        },
        {
          "indexed": false,
          "internalType": "address",
          "name": "seller",
          "type": "address"
        },
        {
          "indexed": false,
          "internalType": "address",
          "name": "owner",
          "type": "address"
        },
        {
          "indexed": false,
          "internalType": "uint256",
          "name": "price",
          "type": "uint256"
        },
        {
          "indexed": false,
          "internalType": "bool",
          "name": "sold",
          "type": "bool"
        }
      ],
      "name": "AuctionItemCreated",
      "type": "event"
    },
    {
      "anonymous": false,
      "inputs": [
        {
          "indexed": false,
          "internalType": "uint256",
          "name": "_fromTokenId",
          "type": "uint256"
        },
        {
          "indexed": false,
          "internalType": "uint256",
          "name": "_toTokenId",
          "type": "uint256"
        }
      ],
      "name": "BatchMetadataUpdate",
      "type": "event"
    },
    {
      "anonymous": false,
      "inputs": [
        {
          "indexed": false,
          "internalType": "uint256",
          "name": "_tokenId",
          "type": "uint256"
        }
      ],
      "name": "MetadataUpdate",
      "type": "event"
    },
    {
      "anonymous": false,
      "inputs": [
        {
          "indexed": true,
          "internalType": "address",
          "name": "from",
          "type": "address"
        },
        {
          "indexed": true,
          "internalType": "address",
          "name": "to",
          "type": "address"
        },
        {
          "indexed": true,
          "internalType": "uint256",
          "name": "tokenId",
          "type": "uint256"
        }
      ],
      "name": "Transfer",
      "type": "event"
    },
    {
      "inputs": [
        {
          "internalType": "address",
          "name": "to",
          "type": "address"
        },
        {
          "internalType": "uint256",
          "name": "tokenId",
          "type": "uint256"
        }
      ],
      "name": "approve",
      "outputs": [],
      "stateMutability": "nonpayable",
      "type": "function"
    },
    {
      "inputs": [
        {
          "internalType": "address",
          "name": "owner",
          "type": "address"
        }
      ],
      "name": "balanceOf",
      "outputs": [
        {
          "internalType": "uint256",
          "name": "",
          "type": "uint256"
        }
      ],
      "stateMutability": "view",
      "type": "function"
    },
    {
      "inputs": [
        {
          "internalType": "uint256",
          "name": "tokenId",
          "type": "uint256"
        }
      ],
      "name": "buyAuctionedItem",
      "outputs": [],
      "stateMutability": "payable",
      "type": "function"
    },
    {
      "inputs": [
        {
          "internalType": "uint256",
          "name": "tokenId",
          "type": "uint256"
        },
        {
          "internalType": "uint256",
          "name": "price",
          "type": "uint256"
        }
      ],
      "name": "chanagePrice",
      "outputs": [],
      "stateMutability": "nonpayable",
      "type": "function"
    },
    {
      "inputs": [
        {
          "internalType": "uint256",
          "name": "tokenId",
          "type": "uint256"
        },
        {
          "internalType": "uint256",
          "name": "bid",
          "type": "uint256"
        }
      ],
      "name": "claimPrize",
      "outputs": [],
      "stateMutability": "nonpayable",
      "type": "function"
    },
    {
      "inputs": [],
      "name": "companyAcc",
      "outputs": [
        {
          "internalType": "address",
          "name": "",
          "type": "address"
        }
      ],
      "stateMutability": "view",
      "type": "function"
    },
    {
      "inputs": [
        {
          "internalType": "string",
          "name": "name",
          "type": "string"
        },
        {
          "internalType": "string",
          "name": "description",
          "type": "string"
        },
        {
          "internalType": "string",
          "name": "image",
          "type": "string"
        },
        {
          "internalType": "string",
          "name": "tokenURI",
          "type": "string"
        },
        {
          "internalType": "uint256",
          "name": "price",
          "type": "uint256"
        }
      ],
      "name": "createAuction",
      "outputs": [],
      "stateMutability": "payable",
      "type": "function"
    },
    {
      "inputs": [
        {
          "internalType": "uint256",
          "name": "tokenId",
          "type": "uint256"
        }
      ],
      "name": "getApproved",
      "outputs": [
        {
          "internalType": "address",
          "name": "",
          "type": "address"
        }
      ],
      "stateMutability": "view",
      "type": "function"
    },
    {
      "inputs": [
        {
          "internalType": "uint256",
          "name": "tokenId",
          "type": "uint256"
        }
      ],
      "name": "getAuction",
      "outputs": [
        {
          "components": [
            {
              "internalType": "string",
              "name": "name",
              "type": "string"
            },
            {
              "internalType": "string",
              "name": "description",
              "type": "string"
            },
            {
              "internalType": "string",
              "name": "image",
              "type": "string"
            },
            {
              "internalType": "uint256",
              "name": "tokenId",
              "type": "uint256"
            },
            {
              "internalType": "address",
              "name": "seller",
              "type": "address"
            },
            {
              "internalType": "address",
              "name": "owner",
              "type": "address"
            },
            {
              "internalType": "address",
              "name": "winner",
              "type": "address"
            },
            {
              "internalType": "uint256",
              "name": "price",
              "type": "uint256"
            },
            {
              "internalType": "bool",
              "name": "sold",
              "type": "bool"
            },
            {
              "internalType": "bool",
              "name": "live",
              "type": "bool"
            },
            {
              "internalType": "bool",
              "name": "biddable",
              "type": "bool"
            },
            {
              "internalType": "uint256",
              "name": "bids",
              "type": "uint256"
            },
            {
              "internalType": "uint256",
              "name": "duration",
              "type": "uint256"
            }
          ],
          "internalType": "struct Auction.AuctionStruct",
          "name": "",
          "type": "tuple"
        }
      ],
      "stateMutability": "view",
      "type": "function"
    },
    {
      "inputs": [],
      "name": "getAuctions",
      "outputs": [
        {
          "components": [
            {
              "internalType": "string",
              "name": "name",
              "type": "string"
            },
            {
              "internalType": "string",
              "name": "description",
              "type": "string"
            },
            {
              "internalType": "string",
              "name": "image",
              "type": "string"
            },
            {
              "internalType": "uint256",
              "name": "tokenId",
              "type": "uint256"
            },
            {
              "internalType": "address",
              "name": "seller",
              "type": "address"
            },
            {
              "internalType": "address",
              "name": "owner",
              "type": "address"
            },
            {
              "internalType": "address",
              "name": "winner",
              "type": "address"
            },
            {
              "internalType": "uint256",
              "name": "price",
              "type": "uint256"
            },
            {
              "internalType": "bool",
              "name": "sold",
              "type": "bool"
            },
            {
              "internalType": "bool",
              "name": "live",
              "type": "bool"
            },
            {
              "internalType": "bool",
              "name": "biddable",
              "type": "bool"
            },
            {
              "internalType": "uint256",
              "name": "bids",
              "type": "uint256"
            },
            {
              "internalType": "uint256",
              "name": "duration",
              "type": "uint256"
            }
          ],
          "internalType": "struct Auction.AuctionStruct[]",
          "name": "Auctions",
          "type": "tuple[]"
        }
      ],
      "stateMutability": "view",
      "type": "function"
    },
    {
      "inputs": [
        {
          "internalType": "uint256",
          "name": "tokenId",
          "type": "uint256"
        }
      ],
      "name": "getBidders",
      "outputs": [
        {
          "components": [
            {
              "internalType": "address",
              "name": "bidder",
              "type": "address"
            },
            {
              "internalType": "uint256",
              "name": "price",
              "type": "uint256"
            },
            {
              "internalType": "uint256",
              "name": "timestamp",
              "type": "uint256"
            },
            {
              "internalType": "bool",
              "name": "refunded",
              "type": "bool"
            },
            {
              "internalType": "bool",
              "name": "won",
              "type": "bool"
            }
          ],
          "internalType": "struct Auction.BiddableStruct[]",
          "name": "",
          "type": "tuple[]"
        }
      ],
      "stateMutability": "view",
      "type": "function"
    },
    {
      "inputs": [],
      "name": "getListingPrice",
      "outputs": [
        {
          "internalType": "uint256",
          "name": "",
          "type": "uint256"
        }
      ],
      "stateMutability": "view",
      "type": "function"
    },
    {
      "inputs": [],
      "name": "getLiveAuctions",
      "outputs": [
        {
          "components": [
            {
              "internalType": "string",
              "name": "name",
              "type": "string"
            },
            {
              "internalType": "string",
              "name": "description",
              "type": "string"
            },
            {
              "internalType": "string",
              "name": "image",
              "type": "string"
            },
            {
              "internalType": "uint256",
              "name": "tokenId",
              "type": "uint256"
            },
            {
              "internalType": "address",
              "name": "seller",
              "type": "address"
            },
            {
              "internalType": "address",
              "name": "owner",
              "type": "address"
            },
            {
              "internalType": "address",
              "name": "winner",
              "type": "address"
            },
            {
              "internalType": "uint256",
              "name": "price",
              "type": "uint256"
            },
            {
              "internalType": "bool",
              "name": "sold",
              "type": "bool"
            },
            {
              "internalType": "bool",
              "name": "live",
              "type": "bool"
            },
            {
              "internalType": "bool",
              "name": "biddable",
              "type": "bool"
            },
            {
              "internalType": "uint256",
              "name": "bids",
              "type": "uint256"
            },
            {
              "internalType": "uint256",
              "name": "duration",
              "type": "uint256"
            }
          ],
          "internalType": "struct Auction.AuctionStruct[]",
          "name": "Auctions",
          "type": "tuple[]"
        }
      ],
      "stateMutability": "view",
      "type": "function"
    },
    {
      "inputs": [],
      "name": "getMyAuctions",
      "outputs": [
        {
          "components": [
            {
              "internalType": "string",
              "name": "name",
              "type": "string"
            },
            {
              "internalType": "string",
              "name": "description",
              "type": "string"
            },
            {
              "internalType": "string",
              "name": "image",
              "type": "string"
            },
            {
              "internalType": "uint256",
              "name": "tokenId",
              "type": "uint256"
            },
            {
              "internalType": "address",
              "name": "seller",
              "type": "address"
            },
            {
              "internalType": "address",
              "name": "owner",
              "type": "address"
            },
            {
              "internalType": "address",
              "name": "winner",
              "type": "address"
            },
            {
              "internalType": "uint256",
              "name": "price",
              "type": "uint256"
            },
            {
              "internalType": "bool",
              "name": "sold",
              "type": "bool"
            },
            {
              "internalType": "bool",
              "name": "live",
              "type": "bool"
            },
            {
              "internalType": "bool",
              "name": "biddable",
              "type": "bool"
            },
            {
              "internalType": "uint256",
              "name": "bids",
              "type": "uint256"
            },
            {
              "internalType": "uint256",
              "name": "duration",
              "type": "uint256"
            }
          ],
          "internalType": "struct Auction.AuctionStruct[]",
          "name": "Auctions",
          "type": "tuple[]"
        }
      ],
      "stateMutability": "view",
      "type": "function"
    },
    {
      "inputs": [],
      "name": "getSoldAuctions",
      "outputs": [
        {
          "components": [
            {
              "internalType": "string",
              "name": "name",
              "type": "string"
            },
            {
              "internalType": "string",
              "name": "description",
              "type": "string"
            },
            {
              "internalType": "string",
              "name": "image",
              "type": "string"
            },
            {
              "internalType": "uint256",
              "name": "tokenId",
              "type": "uint256"
            },
            {
              "internalType": "address",
              "name": "seller",
              "type": "address"
            },
            {
              "internalType": "address",
              "name": "owner",
              "type": "address"
            },
            {
              "internalType": "address",
              "name": "winner",
              "type": "address"
            },
            {
              "internalType": "uint256",
              "name": "price",
              "type": "uint256"
            },
            {
              "internalType": "bool",
              "name": "sold",
              "type": "bool"
            },
            {
              "internalType": "bool",
              "name": "live",
              "type": "bool"
            },
            {
              "internalType": "bool",
              "name": "biddable",
              "type": "bool"
            },
            {
              "internalType": "uint256",
              "name": "bids",
              "type": "uint256"
            },
            {
              "internalType": "uint256",
              "name": "duration",
              "type": "uint256"
            }
          ],
          "internalType": "struct Auction.AuctionStruct[]",
          "name": "Auctions",
          "type": "tuple[]"
        }
      ],
      "stateMutability": "view",
      "type": "function"
    },
    {
      "inputs": [],
      "name": "getUnsoldAuctions",
      "outputs": [
        {
          "components": [
            {
              "internalType": "string",
              "name": "name",
              "type": "string"
            },
            {
              "internalType": "string",
              "name": "description",
              "type": "string"
            },
            {
              "internalType": "string",
              "name": "image",
              "type": "string"
            },
            {
              "internalType": "uint256",
              "name": "tokenId",
              "type": "uint256"
            },
            {
              "internalType": "address",
              "name": "seller",
              "type": "address"
            },
            {
              "internalType": "address",
              "name": "owner",
              "type": "address"
            },
            {
              "internalType": "address",
              "name": "winner",
              "type": "address"
            },
            {
              "internalType": "uint256",
              "name": "price",
              "type": "uint256"
            },
            {
              "internalType": "bool",
              "name": "sold",
              "type": "bool"
            },
            {
              "internalType": "bool",
              "name": "live",
              "type": "bool"
            },
            {
              "internalType": "bool",
              "name": "biddable",
              "type": "bool"
            },
            {
              "internalType": "uint256",
              "name": "bids",
              "type": "uint256"
            },
            {
              "internalType": "uint256",
              "name": "duration",
              "type": "uint256"
            }
          ],
          "internalType": "struct Auction.AuctionStruct[]",
          "name": "Auctions",
          "type": "tuple[]"
        }
      ],
      "stateMutability": "view",
      "type": "function"
    },
    {
      "inputs": [
        {
          "internalType": "address",
          "name": "owner",
          "type": "address"
        },
        {
          "internalType": "address",
          "name": "operator",
          "type": "address"
        }
      ],
      "name": "isApprovedForAll",
      "outputs": [
        {
          "internalType": "bool",
          "name": "",
          "type": "bool"
        }
      ],
      "stateMutability": "view",
      "type": "function"
    },
    {
      "inputs": [],
      "name": "name",
      "outputs": [
        {
          "internalType": "string",
          "name": "",
          "type": "string"
        }
      ],
      "stateMutability": "view",
      "type": "function"
    },
    {
      "inputs": [
        {
          "internalType": "uint256",
          "name": "tokenId",
          "type": "uint256"
        },
        {
          "internalType": "bool",
          "name": "biddable",
          "type": "bool"
        },
        {
          "internalType": "uint256",
          "name": "sec",
          "type": "uint256"
        },
        {
          "internalType": "uint256",
          "name": "min",
          "type": "uint256"
        },
        {
          "internalType": "uint256",
          "name": "hour",
          "type": "uint256"
        },
        {
          "internalType": "uint256",
          "name": "day",
          "type": "uint256"
        }
      ],
      "name": "offerAuction",
      "outputs": [],
      "stateMutability": "nonpayable",
      "type": "function"
    },
    {
      "inputs": [
        {
          "internalType": "uint256",
          "name": "tokenId",
          "type": "uint256"
        }
      ],
      "name": "ownerOf",
      "outputs": [
        {
          "internalType": "address",
          "name": "",
          "type": "address"
        }
      ],
      "stateMutability": "view",
      "type": "function"
    },
    {
      "inputs": [
        {
          "internalType": "uint256",
          "name": "tokenId",
          "type": "uint256"
        }
      ],
      "name": "placeBid",
      "outputs": [],
      "stateMutability": "payable",
      "type": "function"
    },
    {
      "inputs": [],
      "name": "royaltyFee",
      "outputs": [
        {
          "internalType": "uint256",
          "name": "",
          "type": "uint256"
        }
      ],
      "stateMutability": "view",
      "type": "function"
    },
    {
      "inputs": [
        {
          "internalType": "address",
          "name": "from",
          "type": "address"
        },
        {
          "internalType": "address",
          "name": "to",
          "type": "address"
        },
        {
          "internalType": "uint256",
          "name": "tokenId",
          "type": "uint256"
        }
      ],
      "name": "safeTransferFrom",
      "outputs": [],
      "stateMutability": "nonpayable",
      "type": "function"
    },
    {
      "inputs": [
        {
          "internalType": "address",
          "name": "from",
          "type": "address"
        },
        {
          "internalType": "address",
          "name": "to",
          "type": "address"
        },
        {
          "internalType": "uint256",
          "name": "tokenId",
          "type": "uint256"
        },
        {
          "internalType": "bytes",
          "name": "data",
          "type": "bytes"
        }
      ],
      "name": "safeTransferFrom",
      "outputs": [],
      "stateMutability": "nonpayable",
      "type": "function"
    },
    {
      "inputs": [
        {
          "internalType": "address",
          "name": "operator",
          "type": "address"
        },
        {
          "internalType": "bool",
          "name": "approved",
          "type": "bool"
        }
      ],
      "name": "setApprovalForAll",
      "outputs": [],
      "stateMutability": "nonpayable",
      "type": "function"
    },
    {
      "inputs": [
        {
          "internalType": "uint256",
          "name": "price",
          "type": "uint256"
        }
      ],
      "name": "setListingPrice",
      "outputs": [],
      "stateMutability": "nonpayable",
      "type": "function"
    },
    {
      "inputs": [
        {
          "internalType": "bytes4",
          "name": "interfaceId",
          "type": "bytes4"
        }
      ],
      "name": "supportsInterface",
      "outputs": [
        {
          "internalType": "bool",
          "name": "",
          "type": "bool"
        }
      ],
      "stateMutability": "view",
      "type": "function"
    },
    {
      "inputs": [],
      "name": "symbol",
      "outputs": [
        {
          "internalType": "string",
          "name": "",
          "type": "string"
        }
      ],
      "stateMutability": "view",
      "type": "function"
    },
    {
      "inputs": [
        {
          "internalType": "uint256",
          "name": "tokenId",
          "type": "uint256"
        }
      ],
      "name": "tokenURI",
      "outputs": [
        {
          "internalType": "string",
          "name": "",
          "type": "string"
        }
      ],
      "stateMutability": "view",
      "type": "function"
    },
    {
      "inputs": [
        {
          "internalType": "address",
          "name": "from",
          "type": "address"
        },
        {
          "internalType": "address",
          "name": "to",
          "type": "address"
        },
        {
          "internalType": "uint256",
          "name": "tokenId",
          "type": "uint256"
        }
      ],
      "name": "transferFrom",
      "outputs": [],
      "stateMutability": "nonpayable",
      "type": "function"
    }
  ],
  "bytecode": "0x608060405266071afd498d0000600b553480156200001c57600080fd5b506040516200443d3803806200443d8339810160408190526200003f916200016d565b604080518082018252600c81526b536869626120546f6b656e7360a01b60208083019182528351808501909452600384526253484960e81b9084015281519192916200008e91600091620000c7565b508051620000a4906001906020840190620000c7565b5050600160075550600955600a80546001600160a01b03191633179055620001c4565b828054620000d59062000187565b90600052602060002090601f016020900481019282620000f9576000855562000144565b82601f106200011457805160ff191683800117855562000144565b8280016001018555821562000144579182015b828111156200014457825182559160200191906001019062000127565b506200015292915062000156565b5090565b5b8082111562000152576000815560010162000157565b6000602082840312156200018057600080fd5b5051919050565b600181811c908216806200019c57607f821691505b60208210811415620001be57634e487b7160e01b600052602260045260246000fd5b50919050565b61426980620001d46000396000f3fe6080604052600436106101cd5760003560e01c806395d89b41116100f7578063bf65a33311610095578063db0bd5c911610064578063db0bd5c91461050e578063e985e9c514610523578063f42fc7d61461056c578063f5a06acf1461058c57600080fd5b8063bf65a333146104a4578063c87b56dd146104b9578063d36acc39146104d9578063d7c06919146104f957600080fd5b8063a22cb465116100d1578063a22cb4651461042e578063a923f18c1461044e578063b88d4fde1461046e578063b8997a971461048e57600080fd5b806395d89b41146103f15780639979ef45146104065780639c196f7f1461041957600080fd5b806342842e0e1161016f57806370a082311161013e57806370a082311461036457806378bd7935146103845780637b154140146103b15780637c726b69146103d157600080fd5b806342842e0e146102d55780634fa7b507146102f557806355faaa33146103225780636352211e1461034457600080fd5b8063095ea7b3116101ab578063095ea7b31461026157806312e855851461028357806323b872dd146102a257806333748dcb146102c257600080fd5b806301ffc9a7146101d257806306fdde0314610207578063081812fc14610229575b600080fd5b3480156101de57600080fd5b506101f26101ed3660046139bf565b61059f565b60405190151581526020015b60405180910390f35b34801561021357600080fd5b5061021c6105ca565b6040516101fe9190613a34565b34801561023557600080fd5b50610249610244366004613a47565b61065c565b6040516001600160a01b0390911681526020016101fe565b34801561026d57600080fd5b5061028161027c366004613a7c565b610683565b005b34801561028f57600080fd5b50600b545b6040519081526020016101fe565b3480156102ae57600080fd5b506102816102bd366004613aa6565b61079e565b6102816102d0366004613b8e565b6107cf565b3480156102e157600080fd5b506102816102f0366004613aa6565b610c15565b34801561030157600080fd5b50610315610310366004613a47565b610c30565b6040516101fe9190613c43565b34801561032e57600080fd5b50610337610ce2565b6040516101fe9190613dbe565b34801561035057600080fd5b5061024961035f366004613a47565b611076565b34801561037057600080fd5b5061029461037f366004613e20565b6110d6565b34801561039057600080fd5b506103a461039f366004613a47565b61115c565b6040516101fe9190613e3b565b3480156103bd57600080fd5b506102816103cc366004613e4e565b6113be565b3480156103dd57600080fd5b506102816103ec366004613a47565b61161e565b3480156103fd57600080fd5b5061021c61164d565b610281610414366004613a47565b61165c565b34801561042557600080fd5b50610337611894565b34801561043a57600080fd5b50610281610449366004613e80565b611c20565b34801561045a57600080fd5b50610281610469366004613eb3565b611c2b565b34801561047a57600080fd5b50610281610489366004613f01565b611da6565b34801561049a57600080fd5b5061029460095481565b3480156104b057600080fd5b50610337611dde565b3480156104c557600080fd5b5061021c6104d4366004613a47565b61217c565b3480156104e557600080fd5b50600a54610249906001600160a01b031681565b34801561050557600080fd5b5061033761228d565b34801561051a57600080fd5b50610337612593565b34801561052f57600080fd5b506101f261053e366004613f7d565b6001600160a01b03918216600090815260056020908152604080832093909416825291909152205460ff1690565b34801561057857600080fd5b50610281610587366004613e4e565b612935565b61028161059a366004613a47565b612a34565b60006001600160e01b03198216632483248360e11b14806105c457506105c482612c8c565b92915050565b6060600080546105d990613fa7565b80601f016020809104026020016040519081016040528092919081815260200182805461060590613fa7565b80156106525780601f1061062757610100808354040283529160200191610652565b820191906000526020600020905b81548152906001019060200180831161063557829003601f168201915b5050505050905090565b600061066782612cdc565b506000908152600460205260409020546001600160a01b031690565b600061068e82611076565b9050806001600160a01b0316836001600160a01b031614156107015760405162461bcd60e51b815260206004820152602160248201527f4552433732313a20617070726f76616c20746f2063757272656e74206f776e656044820152603960f91b60648201526084015b60405180910390fd5b336001600160a01b038216148061071d575061071d813361053e565b61078f5760405162461bcd60e51b815260206004820152603d60248201527f4552433732313a20617070726f76652063616c6c6572206973206e6f7420746f60448201527f6b656e206f776e6572206f7220617070726f76656420666f7220616c6c00000060648201526084016106f8565b6107998383612d3b565b505050565b6107a83382612da9565b6107c45760405162461bcd60e51b81526004016106f890613fe2565b610799838383612e27565b6107d7612f8b565b600081116108355760405162461bcd60e51b815260206004820152602560248201527f53616c6573207072696365206d7573742062652067726561746572207468616e604482015264207a65726f60d81b60648201526084016106f8565b600b5434101561089c5760405162461bcd60e51b815260206004820152602c60248201527f5072696365206d7573742062652067726561746572207468616e20746865206c60448201526b697374696e6720707269636560a01b60648201526084016106f8565b60008551116108e45760405162461bcd60e51b81526020600482015260146024820152736e616d652063616e6e6f7420626520656d70747960601b60448201526064016106f8565b60008451116109355760405162461bcd60e51b815260206004820152601b60248201527f6465736372697074696f6e2063616e6e6f7420626520656d707479000000000060448201526064016106f8565b600083511161097e5760405162461bcd60e51b8152602060048201526015602482015274696d6167652063616e6e6f7420626520656d70747960581b60448201526064016106f8565b60008251116109cf5760405162461bcd60e51b815260206004820152601860248201527f746f6b656e5552492063616e6e6f7420626520656d707479000000000000000060448201526064016106f8565b6109d882612fe5565b610a1b5760405162461bcd60e51b815260206004820152601460248201527321b7bab632103737ba1036b4b73a103a37b5b2b760611b60448201526064016106f8565b6000610a2660085490565b9050610a30613830565b60608101829052868152602081018690526040810185905260e08101839052610a5c600080808061301f565b610180820152336080820181905260a08201526000828152600c60209081526040909120825180518493610a949284929101906138b9565b506020828101518051610aad92600185019201906138b9565b5060408201518051610ac99160028401916020909101906138b9565b506060820151600382015560808201516004820180546001600160a01b03199081166001600160a01b039384161790915560a0840151600584018054831691841691909117905560c084015160068401805490921690831617905560e083015160078301556101008084015160088401805461012087015161014088015161ffff1990921693151561ff001916939093179215159093029190911762ff000019166201000092151592909202919091179055610160830151600983015561018090920151600a918201556000848152600d60205260409020805460ff1916600117905554610bb8911634613081565b604080513381526000602082018190528183018690526060820152905183917fa693a8f68fe4df789541ddd1b84d32ccaea90adddcc88406b4bbbf6466328d3c919081900360800190a25050610c0e6001600755565b5050505050565b61079983838360405180602001604052806000815250611da6565b6060600e6000838152602001908152602001600020805480602002602001604051908101604052809291908181526020016000905b82821015610cd75760008481526020908190206040805160a0810182526004860290920180546001600160a01b03168352600180820154848601526002820154928401929092526003015460ff8082161515606085015261010090910416151560808301529083529092019101610c65565b505050509050919050565b60606000805b600854811015610d3d57600c6000610d01836001614045565b815260208101919091526040016000206008015460ff1615610d2b5781610d278161405d565b9250505b80610d358161405d565b915050610ce8565b508067ffffffffffffffff811115610d5757610d57613ae2565b604051908082528060200260200182016040528015610d9057816020015b610d7d613830565b815260200190600190039081610d755790505b5091506000805b60085481101561107057600c6000610db0836001614045565b815260208101919091526040016000206008015460ff161561105e57600c6000610ddb836001614045565b8152602001908152602001600020604051806101a0016040529081600082018054610e0590613fa7565b80601f0160208091040260200160405190810160405280929190818152602001828054610e3190613fa7565b8015610e7e5780601f10610e5357610100808354040283529160200191610e7e565b820191906000526020600020905b815481529060010190602001808311610e6157829003601f168201915b50505050508152602001600182018054610e9790613fa7565b80601f0160208091040260200160405190810160405280929190818152602001828054610ec390613fa7565b8015610f105780601f10610ee557610100808354040283529160200191610f10565b820191906000526020600020905b815481529060010190602001808311610ef357829003601f168201915b50505050508152602001600282018054610f2990613fa7565b80601f0160208091040260200160405190810160405280929190818152602001828054610f5590613fa7565b8015610fa25780601f10610f7757610100808354040283529160200191610fa2565b820191906000526020600020905b815481529060010190602001808311610f8557829003601f168201915b50505091835250506003820154602082015260048201546001600160a01b0390811660408301526005830154811660608301526006830154166080820152600782015460a0820152600882015460ff808216151560c08401526101008083048216151560e085015262010000909204161515908201526009820154610120820152600a9091015461014090910152845185908490811061104457611044614078565b6020026020010181905250818061105a9061405d565b9250505b806110688161405d565b915050610d97565b50505090565b6000818152600260205260408120546001600160a01b0316806105c45760405162461bcd60e51b8152602060048201526018602482015277115490cdcc8c4e881a5b9d985b1a59081d1bdad95b88125160421b60448201526064016106f8565b60006001600160a01b0382166111405760405162461bcd60e51b815260206004820152602960248201527f4552433732313a2061646472657373207a65726f206973206e6f7420612076616044820152683634b21037bbb732b960b91b60648201526084016106f8565b506001600160a01b031660009081526003602052604090205490565b611164613830565b6000828152600c60205260409081902081516101a0810190925280548290829061118d90613fa7565b80601f01602080910402602001604051908101604052809291908181526020018280546111b990613fa7565b80156112065780601f106111db57610100808354040283529160200191611206565b820191906000526020600020905b8154815290600101906020018083116111e957829003601f168201915b5050505050815260200160018201805461121f90613fa7565b80601f016020809104026020016040519081016040528092919081815260200182805461124b90613fa7565b80156112985780601f1061126d57610100808354040283529160200191611298565b820191906000526020600020905b81548152906001019060200180831161127b57829003601f168201915b505050505081526020016002820180546112b190613fa7565b80601f01602080910402602001604051908101604052809291908181526020018280546112dd90613fa7565b801561132a5780601f106112ff5761010080835404028352916020019161132a565b820191906000526020600020905b81548152906001019060200180831161130d57829003601f168201915b50505091835250506003820154602082015260048201546001600160a01b0390811660408301526005830154811660608301526006830154166080820152600782015460a0820152600882015460ff808216151560c08401526101008083048216151560e085015262010000909204161515908201526009820154610120820152600a909101546101409091015292915050565b6113c6612f8b565b6000828152600c60205260408120600a0154906113e59080808061301f565b116114275760405162461bcd60e51b815260206004820152601260248201527141756374696f6e207374696c6c206c69766560701b60448201526064016106f8565b6000828152600c60205260409020600601546001600160a01b031633146114895760405162461bcd60e51b81526020600482015260166024820152752cb7ba9030b932903737ba103a3432903bb4b73732b960511b60448201526064016106f8565b6000828152600e60205260409020805460019190839081106114ad576114ad614078565b906000526020600020906004020160030160016101000a81548160ff0219169083151502179055506000600c60008481526020019081526020016000206007015490506000606460095483611502919061408e565b61150c91906140ad565b6000858152600c6020526040812060048101546005820180546006840180546001600160a01b031990811690915560088501805461ffff191660011790556009909401859055928316331790559293506001600160a01b039283169216906115769080808061301f565b6000878152600c60205260409020600a015561159b8161159685876140cf565b613081565b6115a58284613081565b6040516323b872dd60e01b8152306004820181905233602483015260448201889052906323b872dd90606401600060405180830381600087803b1580156115eb57600080fd5b505af11580156115ff573d6000803e3d6000fd5b5050505061160c866130e8565b5050505061161a6001600755565b5050565b600a546001600160a01b031633146116485760405162461bcd60e51b81526004016106f8906140e6565b600b55565b6060600180546105d990613fa7565b6000818152600c60205260409020600701543410156116b25760405162461bcd60e51b8152602060048201526012602482015271125b9cdd59999a58d95b9d08105b5bdd5b9d60721b60448201526064016106f8565b6116c060008060008061301f565b6000828152600c60205260409020600a01541161171f5760405162461bcd60e51b815260206004820152601a60248201527f41756374696f6e6564204974656d206e6f742061766169626c6500000000000060448201526064016106f8565b6000818152600c602052604090206008015462010000900460ff166117865760405162461bcd60e51b815260206004820152601860248201527f41756374696f6e206d757374206265206269646461626c65000000000000000060448201526064016106f8565b6040805160a08101825260009181018290526060810182905260808101829052338152346020820152906117bc9080808061301f565b60408083019182526000848152600e6020908152828220805460018181018355918452828420875160049092020180546001600160a01b039092166001600160a01b0319909216919091178155828701519181019190915593516002850155606085015160039094018054608087015115156101000261ff00199615159690961661ffff199091161794909417909355848152600c90925281206009018054916118658361405d565b9091555050506000908152600c6020526040902034600782015560060180546001600160a01b03191633179055565b60606000805b6008548110156118ee57600c60006118b3836001614045565b815260208101919091526040016000206008015460ff166118dc57816118d88161405d565b9250505b806118e68161405d565b91505061189a565b508067ffffffffffffffff81111561190857611908613ae2565b60405190808252806020026020018201604052801561194157816020015b61192e613830565b8152602001906001900390816119265790505b5091506000805b60085481101561107057600c6000611961836001614045565b815260208101919091526040016000206008015460ff16611c0e57600c600061198b836001614045565b8152602001908152602001600020604051806101a00160405290816000820180546119b590613fa7565b80601f01602080910402602001604051908101604052809291908181526020018280546119e190613fa7565b8015611a2e5780601f10611a0357610100808354040283529160200191611a2e565b820191906000526020600020905b815481529060010190602001808311611a1157829003601f168201915b50505050508152602001600182018054611a4790613fa7565b80601f0160208091040260200160405190810160405280929190818152602001828054611a7390613fa7565b8015611ac05780601f10611a9557610100808354040283529160200191611ac0565b820191906000526020600020905b815481529060010190602001808311611aa357829003601f168201915b50505050508152602001600282018054611ad990613fa7565b80601f0160208091040260200160405190810160405280929190818152602001828054611b0590613fa7565b8015611b525780601f10611b2757610100808354040283529160200191611b52565b820191906000526020600020905b815481529060010190602001808311611b3557829003601f168201915b50505091835250506003820154602082015260048201546001600160a01b0390811660408301526005830154811660608301526006830154166080820152600782015460a0820152600882015460ff808216151560c08401526101008083048216151560e085015262010000909204161515908201526009820154610120820152600a90910154610140909101528451859084908110611bf457611bf4614078565b60200260200101819052508180611c0a9061405d565b9250505b80611c188161405d565b915050611948565b61161a3383836131ed565b6000868152600c60205260409020600501546001600160a01b03163314611c645760405162461bcd60e51b81526004016106f8906140e6565b6000868152600c602052604090206009015415611cc35760405162461bcd60e51b815260206004820152601f60248201527f57696e6e65722073686f756c6420636c61696d207072697a652066697273740060448201526064016106f8565b6000868152600c6020526040902060080154610100900460ff16611d4b57611cec306001611c20565b6040516323b872dd60e01b8152336004820152306024820181905260448201889052906323b872dd90606401600060405180830381600087803b158015611d3257600080fd5b505af1158015611d46573d6000803e3d6000fd5b505050505b6000868152600c6020526040812060098101919091556008018054861515620100000262ffffff1990911617610100179055611d898484848461301f565b6000968752600c6020526040909620600a01959095555050505050565b611db03383612da9565b611dcc5760405162461bcd60e51b81526004016106f890613fe2565b611dd8848484846132bc565b50505050565b60606000805b600854811015611e415733600c6000611dfe846001614045565b81526020810191909152604001600020600501546001600160a01b03161415611e2f5781611e2b8161405d565b9250505b80611e398161405d565b915050611de4565b508067ffffffffffffffff811115611e5b57611e5b613ae2565b604051908082528060200260200182016040528015611e9457816020015b611e81613830565b815260200190600190039081611e795790505b5091506000805b6008548110156110705733600c6000611eb5846001614045565b81526020810191909152604001600020600501546001600160a01b0316141561216a57600c6000611ee7836001614045565b8152602001908152602001600020604051806101a0016040529081600082018054611f1190613fa7565b80601f0160208091040260200160405190810160405280929190818152602001828054611f3d90613fa7565b8015611f8a5780601f10611f5f57610100808354040283529160200191611f8a565b820191906000526020600020905b815481529060010190602001808311611f6d57829003601f168201915b50505050508152602001600182018054611fa390613fa7565b80601f0160208091040260200160405190810160405280929190818152602001828054611fcf90613fa7565b801561201c5780601f10611ff15761010080835404028352916020019161201c565b820191906000526020600020905b815481529060010190602001808311611fff57829003601f168201915b5050505050815260200160028201805461203590613fa7565b80601f016020809104026020016040519081016040528092919081815260200182805461206190613fa7565b80156120ae5780601f10612083576101008083540402835291602001916120ae565b820191906000526020600020905b81548152906001019060200180831161209157829003601f168201915b50505091835250506003820154602082015260048201546001600160a01b0390811660408301526005830154811660608301526006830154166080820152600782015460a0820152600882015460ff808216151560c08401526101008083048216151560e085015262010000909204161515908201526009820154610120820152600a9091015461014090910152845185908490811061215057612150614078565b602002602001018190525081806121669061405d565b9250505b806121748161405d565b915050611e9b565b606061218782612cdc565b600082815260066020526040812080546121a090613fa7565b80601f01602080910402602001604051908101604052809291908181526020018280546121cc90613fa7565b80156122195780601f106121ee57610100808354040283529160200191612219565b820191906000526020600020905b8154815290600101906020018083116121fc57829003601f168201915b50505050509050600061223760408051602081019091526000815290565b905080516000141561224a575092915050565b81511561227c578082604051602001612264929190614113565b60405160208183030381529060405292505050919050565b612285846132ef565b949350505050565b606061229860085490565b67ffffffffffffffff8111156122b0576122b0613ae2565b6040519080825280602002602001820160405280156122e957816020015b6122d6613830565b8152602001906001900390816122ce5790505b50905060005b60085481101561258f57600c6000612308836001614045565b8152602001908152602001600020604051806101a001604052908160008201805461233290613fa7565b80601f016020809104026020016040519081016040528092919081815260200182805461235e90613fa7565b80156123ab5780601f10612380576101008083540402835291602001916123ab565b820191906000526020600020905b81548152906001019060200180831161238e57829003601f168201915b505050505081526020016001820180546123c490613fa7565b80601f01602080910402602001604051908101604052809291908181526020018280546123f090613fa7565b801561243d5780601f106124125761010080835404028352916020019161243d565b820191906000526020600020905b81548152906001019060200180831161242057829003601f168201915b5050505050815260200160028201805461245690613fa7565b80601f016020809104026020016040519081016040528092919081815260200182805461248290613fa7565b80156124cf5780601f106124a4576101008083540402835291602001916124cf565b820191906000526020600020905b8154815290600101906020018083116124b257829003601f168201915b50505091835250506003820154602082015260048201546001600160a01b0390811660408301526005830154811660608301526006830154166080820152600782015460a0820152600882015460ff808216151560c08401526101008083048216151560e085015262010000909204161515908201526009820154610120820152600a9091015461014090910152825183908390811061257157612571614078565b602002602001018190525080806125879061405d565b9150506122ef565b5090565b60606000805b6008548110156125f8576125b160008060008061301f565b600c60006125c0846001614045565b8152602001908152602001600020600a015411156125e657816125e28161405d565b9250505b806125f08161405d565b915050612599565b508067ffffffffffffffff81111561261257612612613ae2565b60405190808252806020026020018201604052801561264b57816020015b612638613830565b8152602001906001900390816126305790505b5091506000805b6008548110156110705761266a60008060008061301f565b600c6000612679846001614045565b8152602001908152602001600020600a0154111561292357600c60006126a0836001614045565b8152602001908152602001600020604051806101a00160405290816000820180546126ca90613fa7565b80601f01602080910402602001604051908101604052809291908181526020018280546126f690613fa7565b80156127435780601f1061271857610100808354040283529160200191612743565b820191906000526020600020905b81548152906001019060200180831161272657829003601f168201915b5050505050815260200160018201805461275c90613fa7565b80601f016020809104026020016040519081016040528092919081815260200182805461278890613fa7565b80156127d55780601f106127aa576101008083540402835291602001916127d5565b820191906000526020600020905b8154815290600101906020018083116127b857829003601f168201915b505050505081526020016002820180546127ee90613fa7565b80601f016020809104026020016040519081016040528092919081815260200182805461281a90613fa7565b80156128675780601f1061283c57610100808354040283529160200191612867565b820191906000526020600020905b81548152906001019060200180831161284a57829003601f168201915b50505091835250506003820154602082015260048201546001600160a01b0390811660408301526005830154811660608301526006830154166080820152600782015460a0820152600882015460ff808216151560c08401526101008083048216151560e085015262010000909204161515908201526009820154610120820152600a9091015461014090910152845185908490811061290957612909614078565b6020026020010181905250818061291f9061405d565b9250505b8061292d8161405d565b915050612652565b6000828152600c60205260409020600501546001600160a01b0316331461296e5760405162461bcd60e51b81526004016106f8906140e6565b6000828152600c60205260408120600a01549061298d9080808061301f565b116129cf5760405162461bcd60e51b815260206004820152601260248201527141756374696f6e207374696c6c206c69766560701b60448201526064016106f8565b60008111612a1f5760405162461bcd60e51b815260206004820152601f60248201527f5072696365206d7573742062652067726561746572207468616e207a65726f0060448201526064016106f8565b6000918252600c602052604090912060070155565b612a3c612f8b565b6000818152600c6020526040902060070154341015612a925760405162461bcd60e51b8152602060048201526012602482015271125b9cdd59999a58d95b9d08105b5bdd5b9d60721b60448201526064016106f8565b612aa060008060008061301f565b6000828152600c60205260409020600a015411612aff5760405162461bcd60e51b815260206004820152601a60248201527f41756374696f6e6564204974656d206e6f742061766169626c6500000000000060448201526064016106f8565b6000818152600c602052604090206008015462010000900460ff1615612b675760405162461bcd60e51b815260206004820152601c60248201527f41756374696f6e206d757374206e6f74206265206269646461626c650000000060448201526064016106f8565b6000818152600c6020526040812060048101546005909101546009546001600160a01b03928316939190921691606490612ba1903461408e565b612bab91906140ad565b9050612bbb8261159683346140cf565b612bc58382613081565b6040516323b872dd60e01b8152306004820181905233602483015260448201869052906323b872dd90606401600060405180830381600087803b158015612c0b57600080fd5b505af1158015612c1f573d6000803e3d6000fd5b5050506000858152600c6020526040812060088101805461ffff19166001179055600901819055612c53915080808061301f565b6000858152600c60205260409020600a81019190915560050180546001600160a01b0319163317905550612c8991506130e19050565b50565b60006001600160e01b031982166380ac58cd60e01b1480612cbd57506001600160e01b03198216635b5e139f60e01b145b806105c457506301ffc9a760e01b6001600160e01b03198316146105c4565b6000818152600260205260409020546001600160a01b0316612c895760405162461bcd60e51b8152602060048201526018602482015277115490cdcc8c4e881a5b9d985b1a59081d1bdad95b88125160421b60448201526064016106f8565b600081815260046020526040902080546001600160a01b0319166001600160a01b0384169081179091558190612d7082611076565b6001600160a01b03167f8c5be1e5ebec7d5bd14f71427d1e84f3dd0314c0f7b2291e5b200ac8c7c3b92560405160405180910390a45050565b600080612db583611076565b9050806001600160a01b0316846001600160a01b03161480612dfc57506001600160a01b0380821660009081526005602090815260408083209388168352929052205460ff165b806122855750836001600160a01b0316612e158461065c565b6001600160a01b031614949350505050565b826001600160a01b0316612e3a82611076565b6001600160a01b031614612e605760405162461bcd60e51b81526004016106f890614142565b6001600160a01b038216612ec25760405162461bcd60e51b8152602060048201526024808201527f4552433732313a207472616e7366657220746f20746865207a65726f206164646044820152637265737360e01b60648201526084016106f8565b826001600160a01b0316612ed582611076565b6001600160a01b031614612efb5760405162461bcd60e51b81526004016106f890614142565b600081815260046020908152604080832080546001600160a01b03199081169091556001600160a01b0387811680865260038552838620805460001901905590871680865283862080546001019055868652600290945282852080549092168417909155905184937fddf252ad1be2c89b69c2b068fc378daa952ba7f163c4a11628f55a4df523b3ef91a4505050565b60026007541415612fde5760405162461bcd60e51b815260206004820152601f60248201527f5265656e7472616e637947756172643a207265656e7472616e742063616c6c0060448201526064016106f8565b6002600755565b6000612ff5600880546001019055565b600061300060085490565b905061300c3382613363565b61301681846134ee565b50600192915050565b600061302e826201518061408e565b61303a84610e1061408e565b61304586603c61408e565b61305088600161408e565b61305a9042614045565b6130649190614045565b61306e9190614045565b6130789190614045565b95945050505050565b6000826001600160a01b03168260405160006040518083038185875af1925050503d80600081146130ce576040519150601f19603f3d011682016040523d82523d6000602084013e6130d3565b606091505b505090508061079957600080fd5b6001600755565b60005b6000828152600e60205260409020548110156131d5576000828152600e6020526040812080548390811061312157613121614078565b60009182526020918290206040805160a081018252600490930290910180546001600160a01b03168084526001820154948401949094526002810154918301919091526003015460ff808216151560608401526101009091041615156080820152915033146131a75760016060820152805160208201516131a29190613081565b6131af565b600160808201525b6131bd60008060008061301f565b604090910152806131cd8161405d565b9150506130eb565b506000818152600e60205260408120612c8991613939565b816001600160a01b0316836001600160a01b0316141561324f5760405162461bcd60e51b815260206004820152601960248201527f4552433732313a20617070726f766520746f2063616c6c65720000000000000060448201526064016106f8565b6001600160a01b03838116600081815260056020908152604080832094871680845294825291829020805460ff191686151590811790915591519182527f17307eab39ab6107e8899845ad3d59bd9653f200f220920489ca2b5937696c31910160405180910390a3505050565b6132c7848484612e27565b6132d3848484846135c0565b611dd85760405162461bcd60e51b81526004016106f890614187565b60606132fa82612cdc565b600061331160408051602081019091526000815290565b90506000815111613331576040518060200160405280600081525061335c565b8061333b846136bb565b60405160200161334c929190614113565b6040516020818303038152906040525b9392505050565b6001600160a01b0382166133b95760405162461bcd60e51b815260206004820181905260248201527f4552433732313a206d696e7420746f20746865207a65726f206164647265737360448201526064016106f8565b6000818152600260205260409020546001600160a01b03161561341e5760405162461bcd60e51b815260206004820152601c60248201527f4552433732313a20746f6b656e20616c7265616479206d696e7465640000000060448201526064016106f8565b6000818152600260205260409020546001600160a01b0316156134835760405162461bcd60e51b815260206004820152601c60248201527f4552433732313a20746f6b656e20616c7265616479206d696e7465640000000060448201526064016106f8565b6001600160a01b038216600081815260036020908152604080832080546001019055848352600290915280822080546001600160a01b0319168417905551839291907fddf252ad1be2c89b69c2b068fc378daa952ba7f163c4a11628f55a4df523b3ef908290a45050565b6000828152600260205260409020546001600160a01b03166135695760405162461bcd60e51b815260206004820152602e60248201527f45524337323155524953746f726167653a2055524920736574206f66206e6f6e60448201526d32bc34b9ba32b73a103a37b5b2b760911b60648201526084016106f8565b60008281526006602090815260409091208251613588928401906138b9565b506040518281527ff8e1a15aba9398e019f0b49df1a4fde98ee17ae345cb5f6b5e2c27f5033e8ce79060200160405180910390a15050565b60006001600160a01b0384163b156136b357604051630a85bd0160e11b81526001600160a01b0385169063150b7a02906136049033908990889088906004016141d9565b6020604051808303816000875af192505050801561363f575060408051601f3d908101601f1916820190925261363c91810190614216565b60015b613699573d80801561366d576040519150601f19603f3d011682016040523d82523d6000602084013e613672565b606091505b5080516136915760405162461bcd60e51b81526004016106f890614187565b805181602001fd5b6001600160e01b031916630a85bd0160e11b149050612285565b506001612285565b606060006136c883613758565b600101905060008167ffffffffffffffff8111156136e8576136e8613ae2565b6040519080825280601f01601f191660200182016040528015613712576020820181803683370190505b5090508181016020015b600019016f181899199a1a9b1b9c1cb0b131b232b360811b600a86061a8153600a850494508461374b57613750565b61371c565b509392505050565b60008072184f03e93ff9f4daa797ed6e38ed64bf6a1f0160401b83106137975772184f03e93ff9f4daa797ed6e38ed64bf6a1f0160401b830492506040015b6d04ee2d6d415b85acef810000000083106137c3576d04ee2d6d415b85acef8100000000830492506020015b662386f26fc1000083106137e157662386f26fc10000830492506010015b6305f5e10083106137f9576305f5e100830492506008015b612710831061380d57612710830492506004015b6064831061381f576064830492506002015b600a83106105c45760010192915050565b604051806101a001604052806060815260200160608152602001606081526020016000815260200160006001600160a01b0316815260200160006001600160a01b0316815260200160006001600160a01b031681526020016000815260200160001515815260200160001515815260200160001515815260200160008152602001600081525090565b8280546138c590613fa7565b90600052602060002090601f0160209004810192826138e7576000855561392d565b82601f1061390057805160ff191683800117855561392d565b8280016001018555821561392d579182015b8281111561392d578251825591602001919060010190613912565b5061258f92915061395a565b5080546000825560040290600052602060002090810190612c89919061396f565b5b8082111561258f576000815560010161395b565b5b8082111561258f5780546001600160a01b0319168155600060018201819055600282015560038101805461ffff19169055600401613970565b6001600160e01b031981168114612c8957600080fd5b6000602082840312156139d157600080fd5b813561335c816139a9565b60005b838110156139f75781810151838201526020016139df565b83811115611dd85750506000910152565b60008151808452613a208160208601602086016139dc565b601f01601f19169290920160200192915050565b60208152600061335c6020830184613a08565b600060208284031215613a5957600080fd5b5035919050565b80356001600160a01b0381168114613a7757600080fd5b919050565b60008060408385031215613a8f57600080fd5b613a9883613a60565b946020939093013593505050565b600080600060608486031215613abb57600080fd5b613ac484613a60565b9250613ad260208501613a60565b9150604084013590509250925092565b634e487b7160e01b600052604160045260246000fd5b600067ffffffffffffffff80841115613b1357613b13613ae2565b604051601f8501601f19908116603f01168101908282118183101715613b3b57613b3b613ae2565b81604052809350858152868686011115613b5457600080fd5b858560208301376000602087830101525050509392505050565b600082601f830112613b7f57600080fd5b61335c83833560208501613af8565b600080600080600060a08688031215613ba657600080fd5b853567ffffffffffffffff80821115613bbe57600080fd5b613bca89838a01613b6e565b96506020880135915080821115613be057600080fd5b613bec89838a01613b6e565b95506040880135915080821115613c0257600080fd5b613c0e89838a01613b6e565b94506060880135915080821115613c2457600080fd5b50613c3188828901613b6e565b95989497509295608001359392505050565b602080825282518282018190526000919060409081850190868401855b82811015613cb157815180516001600160a01b031685528681015187860152858101518686015260608082015115159086015260809081015115159085015260a09093019290850190600101613c60565b5091979650505050505050565b60006101a08251818552613cd482860182613a08565b91505060208301518482036020860152613cee8282613a08565b91505060408301518482036040860152613d088282613a08565b915050606083015160608501526080830151613d2f60808601826001600160a01b03169052565b5060a0830151613d4a60a08601826001600160a01b03169052565b5060c0830151613d6560c08601826001600160a01b03169052565b5060e083015160e085015261010080840151613d848287018215159052565b5050610120838101511515908501526101408084015115159085015261016080840151908501526101809283015192909301919091525090565b6000602080830181845280855180835260408601915060408160051b870101925083870160005b82811015613e1357603f19888603018452613e01858351613cbe565b94509285019290850190600101613de5565b5092979650505050505050565b600060208284031215613e3257600080fd5b61335c82613a60565b60208152600061335c6020830184613cbe565b60008060408385031215613e6157600080fd5b50508035926020909101359150565b80358015158114613a7757600080fd5b60008060408385031215613e9357600080fd5b613e9c83613a60565b9150613eaa60208401613e70565b90509250929050565b60008060008060008060c08789031215613ecc57600080fd5b86359550613edc60208801613e70565b95989597505050506040840135936060810135936080820135935060a0909101359150565b60008060008060808587031215613f1757600080fd5b613f2085613a60565b9350613f2e60208601613a60565b925060408501359150606085013567ffffffffffffffff811115613f5157600080fd5b8501601f81018713613f6257600080fd5b613f7187823560208401613af8565b91505092959194509250565b60008060408385031215613f9057600080fd5b613f9983613a60565b9150613eaa60208401613a60565b600181811c90821680613fbb57607f821691505b60208210811415613fdc57634e487b7160e01b600052602260045260246000fd5b50919050565b6020808252602d908201527f4552433732313a2063616c6c6572206973206e6f7420746f6b656e206f776e6560408201526c1c881bdc88185c1c1c9bdd9959609a1b606082015260800190565b634e487b7160e01b600052601160045260246000fd5b600082198211156140585761405861402f565b500190565b60006000198214156140715761407161402f565b5060010190565b634e487b7160e01b600052603260045260246000fd5b60008160001904831182151516156140a8576140a861402f565b500290565b6000826140ca57634e487b7160e01b600052601260045260246000fd5b500490565b6000828210156140e1576140e161402f565b500390565b602080825260139082015272556e617574686f72697a656420656e7469747960681b604082015260600190565b600083516141258184602088016139dc565b8351908301906141398183602088016139dc565b01949350505050565b60208082526025908201527f4552433732313a207472616e736665722066726f6d20696e636f72726563742060408201526437bbb732b960d91b606082015260800190565b60208082526032908201527f4552433732313a207472616e7366657220746f206e6f6e20455243373231526560408201527131b2b4bb32b91034b6b83632b6b2b73a32b960711b606082015260800190565b6001600160a01b038581168252841660208201526040810183905260806060820181905260009061420c90830184613a08565b9695505050505050565b60006020828403121561422857600080fd5b815161335c816139a956fea2646970667358221220645f4c0a13d13f37d350b2fbdf3f355d628820a22cae1f22f4f4317aaadbd55b64736f6c634300080b0033",
  "linkReferences": {},
  "deployedLinkReferences": {}
}